:100000000C9460030C948E030C947D030C947D037C
:100010000C947D030C947D030C947D030C947D0360
:100020000C947D030C947D030C947D030C947D0350
:100030000C947D030C947D030C947D030C947D0340
:100040000C947D030C947D030C947D030C947D0330
:100050000C947D030C947D030C947D030C947D0320
:100060000C947D030C947D030C947D030C947D0310
:1000700000000000005C00000C000C007C287C28C4
:1000800058DC68002410480028542840000C000068
:10009000007884008478000054385400107C1000EC
:1000A00080400000101010000040000060100C00A4
:1000B00038543800487C40004864580044542C00B0
:1000C0001C107C005C5424003854240064140C0080
:1000D00068542C0048543800004800008048000054
:1000E0001028440028282800442810000454080040
:1000F00038445C00781478007C5428003844280088
:100100007C4438007C5444007C140400384474005F
:100110007C107C00447C440020403C007C106C003F
:100120007C4040007C187C0078103C00384438004B
:100130007C1408003844B8007C146800485424003B
:10014000047C04007C407C003C603C007C307C00F3
:100150006C106C000C700C0064544C00007C44006B
:100160000C106000447C00000804080080808000BF
:1001700000040800304878007C48300030484800CF
:1001800030487C00306850001078140090A8780047
:100190007C08700050744000808074007C106800FF
:1001A000447C4000781078007808700030483000B7
:1001B000F82810003048F80078100800505828003F
:1001C000083C4800384078003840380078207800F3
:1001D0004830480098A0780048685800107884009B
:1001E000007C00008478100008040804000000006F
:1001F0000000005F00000007000700147F147F1458
:10020000242A7F2A1223130864623649552250009B
:1002100005030000001C2241000041221C00082AA6
:100220001C2A0808083E080800503000000808088A
:100230000808006060000020100804023E51494593
:100240003E00427F400042615149462141454B31C9
:100250001814127F1027454545393C4A4949300159
:10026000710905033649494936064949291E0036B0
:100270003600000056360000000814224114141401
:10028000141441221408000201510906324979412F
:100290003E7E1111117E7F494949363E414141223E
:1002A0007F4141221C7F494949417F090901013EA3
:1002B000414151327F0808087F00417F41002040C2
:1002C000413F017F081422417F404040407F0204AB
:1002D000027F7F0408107F3E4141413E7F090909AA
:1002E000063E4151215E7F09192946464949493157
:1002F00001017F01013F4040403F1F2040201F7F00
:100300002018207F631408146303047804036151E8
:1003100049454300007F4141020408102041417FCC
:100320000000040201020440404040400001020479
:100330000020545454787F4844443838444444207E
:10034000384444487F3854545418087E0901020840
:100350001454543C7F0804047800447D400020403D
:10036000443D00007F10284400417F40007C041879
:1003700004787C0804047838444444387C14141409
:1003800008081414187C7C080404084854545420A9
:10039000043F4440203C4040207C1C2040201C3C2A
:1003A0004030403C44281028440C5050503C446499
:1003B000544C44000836410000007F0000004136E4
:1003C000080002010302010000000000000000001C
:1003D000065F5F0600000000070700070700001423
:1003E0007F7F147F7F1400242E6B6B3A120000462F
:1003F0006630180C666200307A4F5D377A48000428
:1004000007030000000000001C3E634100000000E4
:1004100041633E1C000000082A3E1C1C3E2A0808BE
:10042000083E3E0808000000A0E060000000000850
:100430000808080808000000006060000000006074
:1004400030180C060301003E7F594D7F3E000042EC
:10045000427F7F40400000627359496F660000226E
:100460006349497F360000181C16137F7F10002750
:100470006745457D3900003C7E4B497930000003DB
:100480006371190F070000367F49497F3600000667
:100490004F49693F1E000000006C6C000000000026
:1004A000A0EC6C00000000081C3663410000001442
:1004B00014141414140000004163361C08000002D8
:1004C0000351590F0600003E7F415D5D1F1E007CF9
:1004D0007E13137E7C0000417F7F49497F36001CDC
:1004E0003E634141632200417F7F41637F1C0041A5
:1004F0007F7F495D416300417F7F491D0103001CEF
:100500003E6341517372007F7F08087F7F000000C7
:10051000417F7F41000000307040417F3F0100413A
:100520007F7F081C776300417F7F41406070007FC0
:100530007F060C067F7F007F7F060C187F7F001CE4
:100540003E6341633E1C00417F7F49090F06001E48
:100550003F21717F5E0000417F7F19396F46002681
:10056000674D597B32000003417F7F410300007FCC
:100570007F40407F7F00001F3F60603F1F00007F83
:100580007F3018307F7F0063771C081C776300077B
:100590004F78784F0700006773594D47637100002B
:1005A0007F7F41410000000103060C18306000000D
:1005B00041417F7F000000080C0603060C08008004
:1005C000808080808080800000030704000000207D
:1005D0007454543C784000413F7F44447C38003898
:1005E0007C44446C280000307848493F7F40003804
:1005F0007C54545C180000487E7F49030200009838
:10060000BCA4A4F87C0400417F7F08047C7800002F
:10061000447D7D4000000040C484FD7D0000004119
:100620007F7F10386C440000417F7F400000007CD9
:100630007C0C180C7C78007C7C04047C78000038EE
:100640007C44447C38000084FCF8A4243C18001846
:100650003C24A4F8FC8400447C78441C1800004826
:100660005C54547424000000043E7F442400003C89
:100670007C40403C7C40001C3C60603C1C00003CDA
:100680007C6030607C3C00446C3810386C44009CCA
:10069000BCA0A0FC7C00004C64745C4C64000008AE
:1006A000083E7741410000000000777700000041DC
:1006B00041773E0808000002030103020301000025
:1006C00011241FBECFEFD4E0DEBFCDBF12E0A0E00B
:1006D000B1E0E4EAFBE102C005900D92A833B10756
:1006E000D9F722E0A8E3B2E001C01D92A434B2071A
:1006F000E1F70E9415060C94D00D0C94840380E859
:1007000085BF80E280BF08951F920F920FB60F92AF
:1007100011240F900FBE0F901F9018951F920F92EB
:100720000FB60F9211242F933F934F935F936F93C4
:100730007F938F939F93AF93BF93EF93FF9388E043
:1007400091E09F938F930E94CF0A40E061E08CE29A
:100750000E94A7060F900F90FF91EF91BF91AF916C
:100760009F918F917F916F915F914F913F912F91C9
:100770000F900FBE0F901F9018950E945E0680E8A4
:100780000E94CF0645E06FEF88E20E94A70641EB8A
:100790006FEF89E20E94A70643E06FEF8AE20E94B2
:1007A000A706F8948BB780648BBF85B7826085BF3E
:1007B00078940895CF92DF92EF92FF921F93CF9398
:1007C000DF936C01FC0180819181969587959695C8
:1007D00087959695879561E30E947A06F601808158
:1007E00062E38295880F807E0E947A0665E3F601B7
:1007F00082810E947A06F60182818823A9F076011F
:10080000F3E0EF0EF11C16E3C0E0D0E0612FF7013A
:1008100081917F010E947A0621961F5FF6018281F5
:1008200090E0C817D90794F380E00E948E0689EF04
:1008300090E00197F1F700C0000080E30E944406B9
:10084000C82F8DE20E9444061F928F938AE191E0A7
:100850009F938F930E94CF0A0F900F900F900F904D
:10086000C3FF09C080E291E09F938F930E94CF0A5B
:100870000F900F9029C0C4FF09C081E391E09F93BE
:100880008F930E94CF0A0F900F901EC0C5FF09C022
:100890008EE391E09F938F930E94CF0A0F900F9069
:1008A00013C0C6FF09C089E591E09F938F930E9412
:1008B000CF0A0F900F9008C08BE691E09F938F9323
:1008C0000E94CF0A0F900F90DF91CF911F91FF9060
:1008D000EF90DF90CF900895CF92DF92EF92FF924A
:1008E0001F93CF93DF938BE090E00E9463096C012C
:1008F00081E60E944406C82F82E60E9444062C2FFF
:1009000030E0220F331F220F331F220F331F829537
:1009100086958770282BF6013183208385E60E9417
:100920004406F60182838823A9F07601F3E0EF0EF6
:10093000F11C16E6C0E0D0E0812F0E944406F701CA
:1009400081937F0121961F5FF601828190E0C81795
:10095000D90794F3C601DF91CF911F91FF90EF90DB
:10096000DF90CF9008958DE791E09F938F930E9441
:10097000CF0A0F900F900895EF92FF920F931F935D
:10098000CF93DF937C018B01EA0184E190E00E9428
:100990006309FC01F18AE08A32969C01205F3F4F97
:1009A00011921192E217F307D9F7FC01118300832A
:1009B000D38BC28BDF91CF911F910F91FF90EF905E
:1009C0000895CF92DF92EF92FF920F931F93CF93F0
:1009D000DF9340E050E06DE871E080E090E00E943D
:1009E000BC048C0143EB54E067E971E00E94BC0455
:1009F0007C0140E050E062EA71E0C8010E94BC0462
:100A0000EC01F801F382E2829583848340E050E0B8
:100A10006BEA71E00E94BC046C0140E050E065EBC1
:100A200071E0CE010E94BC047C0140E050E06FEB1D
:100A300071E0CE010E94BC04DB82CA82FD82EC829E
:100A40009F838E83C801DF91CF911F910F91FF90FB
:100A5000EF90DF90CF9008950F931F93CF93DF9384
:100A6000D82FC92F0E941E0764E180E00E945D0715
:100A70000D2F1C2FD8018D919D918D010E948C0707
:100A8000C1E060E08C2F0E945D07D801ED91FD91DF
:100A90008D01309721F0808191810E948C07CF5F7A
:100AA000C83079F7DF91CF911F910F9108950F937F
:100AB0001F93CF93DF93EB018A012A813B81232B84
:100AC00059F0FB01349620E030E02F5F3F4F419119
:100AD0005191452BD1F702C020E030E0FC01448168
:100AE000558143305105D9F401151105B1F18681C5
:100AF0009781892B91F5CE010E942C058EEF800FF6
:100B00000E94690701501109000F111FC00FD11F6A
:100B1000E881F981808191810E94AE071EC0443036
:100B20005105D9F402171307C1F0FC0186819781A2
:100B3000892B99F4CE010E942C0582E0800F0E943F
:100B400069070D5F1F4F000F111FC00FD11FE881F4
:100B5000F981808191810E94AE07DF91CF911F9131
:100B60000F910895CF93DF93EB01DC0114962D9143
:100B70003C91159716968D919C91179728173907D8
:100B800009F44FC02230310509F443C020F421306C
:100B9000310531F146C02330310521F024303105D3
:100BA00051F03FC0FA01808191810097D1F1019706
:100BB0009183808336C0DA018D919C9111978630A4
:100BC000910578F50196FC013196EE0FFF1FE60FB7
:100BD000F71F20813181232B21F18D939C9321C01C
:100BE000DA01ED91FC913196EE0FFF1FE60FF71F32
:100BF000A081B1811097A9F05296ED91FC91539785
:100C0000309711F009950DC0FA0111821082ED01A3
:100C100008C088899989009721F0DA011D921C92F9
:100C2000EC01CE01DF91CF9108950E947F030E94D5
:100C30004C090E94EE078FE190E00E943B0989EC8D
:100C400091E09F938F930E94CF0A0E94BD0380E0A2
:100C50000E94CF068BE090E00E946309FC018EEFBA
:100C600097E09183808385E0828388E4838385E6AF
:100C700084838CE6858386838FE68783CF010E94F9
:100C8000DA030F900F900895CF93C82F0E94D706D4
:100C900083E00E94E0068C2F0E94E0060E94E4069A
:100CA000C82F0E94D5068C2FCF9108950E94D70699
:100CB00080EC0E94E0060E94D50608950E94D906A5
:100CC0000E94560689EF90E00197F1F700C00000FE
:100CD0008EE00E944406807E803851F081ED91E0E4
:100CE0009F938F930E94CF0A0F900F9081E00895F9
:100CF00080E00895CF93DF93C82FD62F0E94D706A8
:100D000082E00E94E0068D2F0E94E0068C2F0E9458
:100D1000E0060E94D506DF91CF910895CF93C82FAA
:100D20000E94D706C13041F018F0C23049F00BC024
:100D300081E80E94E00607C082E80E94E00603C046
:100D400084E80E94E0060E94D506CF9108951F9383
:100D5000CF93DF93182FD62FC42F0E94D70685E09C
:100D60000E94E006812F0E94E0068D2F0E94E0067F
:100D70008C2F0E94E0060E94D506DF91CF911F9133
:100D80000895CF930E94D70680EA0E94E0060E9451
:100D9000E406C82F0E94D5068C2FCF910895482FC6
:100DA00060EE8FE00E94A7060895C49A0895C49843
:100DB000089580EB87BB81ED8DB90E94D50608951B
:100DC0008FB9779BFECF08958FEF8FB9779BFECFBA
:100DD0008FB10895809300100895809300120895B4
:100DE000E0E0F0E181EA80838EEA80838AED80830F
:100DF00082E1808388EC808388EA80838FE380832C
:100E000085ED808380E8808381E8808380E580832E
:100E100089ED808381E2808380E2808382E0808329
:100E20008BED808380E380838DEA8083108284EA67
:100E3000808386EA80838FEA80830895E0E0F0E192
:100E400080E28083108281E2808310828FE780833A
:100E500080E094E0E0E0F2E110820197E9F7E0E061
:100E6000F0E180E2808382E080830895E0E0F0E1B9
:100E700080E28083108281E2808310828FE780830A
:100E800080E094E0E0E0F2E12FEF20830197E9F7C2
:100E9000E0E0F0E180E2808382E080830895982F93
:100EA0009F70E0E0F0E1908382958F70805F808397
:100EB000089580558093001008958055E0E0F0E19A
:100EC0008083862F8F70808362956F70605F6083F0
:100ED000089580558093001080E890E0E0E0F2E112
:100EE00010820197E9F70895082E000C990B80975E
:100EF000880F991F880F991F880F991FFC01E953CC
:100F0000FC4F81539C4FA0E0B2E124912C93319689
:100F1000E817F907D1F70895EF92FF920F931F9307
:100F2000CF93DF938C017C01C0E0D0E006C0F701D5
:100F300081917F010E9474072196F80101900020A1
:100F4000E9F73197E01BF10BCE17DF0780F3DF9154
:100F5000CF911F910F91FF90EF900895CF93DF9362
:100F600020E830E0E0E0F2E14FEF4083215031092A
:100F7000E1F7DC0140E050E0C0E0D2E11CC020E03D
:100F800030E0EC910E2E000CFF0BB097EE0FFF1F20
:100F9000EE0FFF1FEE0FFF1FE20FF31FE953FC4F91
:100FA000E491E095E8832F5F3F4F2830310549F702
:100FB0004F5F5F4F1196FC0101900020E9F73197D8
:100FC000E81BF90B4E175F07D0F2DF91CF91089520
:100FD000E0E0F0E191E8908380830895BA98B898B2
:100FE000B99808950F931F93CF93DF93EC0181E895
:100FF00090E00E9452098058082F880F110B80E85A
:1010000090E00E9452098058082E000C990B2A810A
:10101000022E000C330BA801421B530B2058310940
:101020004217530754F09A012D5F3F4F2730310587
:1010300010F09A0102C020E030E04B81042E000C39
:10104000550B841B950B405851098417950744F0A4
:10105000AC014D5F5F4F4730510508F47CC0AC01D7
:10106000288349838C819D819F838E83C9018796C4
:101070008F34910540F4CA0187968F34910518F496
:101080001D821C8261C014161506B4F4BA015523E2
:1010900024F466277727641B750BC901332324F4D6
:1010A00088279927821B930B86179707ECF483E018
:1010B00090E09D838C8348C05523B4F4BA01552336
:1010C00024F466277727641B750BC901332324F4A6
:1010D00088279927821B930B861797072CF484E0A7
:1010E00090E09D838C8330C012161306B4F4B901CE
:1010F000332324F466277727621B730BCA019923D5
:1011000024F488279927841B950B86179707E4F406
:1011100081E090E09D838C8317C03323ACF4B90148
:10112000332324F466277727621B730BCA019923A4
:1011300024F488279927841B950B8617970724F496
:1011400082E090E09D838C8396B381E0911101C091
:1011500080E08A870FC0288319828C819D819F83BC
:101160008E83C90187968F34910508F489CF40E0BA
:1011700050E0BACFDF91CF911F910F910895CF9397
:10118000DF93EC010E94F20788818A8389818B8337
:10119000DF91CF9108950F931F93CF93DF938C012D
:1011A000FC018081282F082E000C330B3F938F9376
:1011B00088E092E09F938F930E94CF0AC0E1D2E033
:1011C000DF93CF930E94CF0AF8018181282F082E48
:1011D000000C330B3F938F9383E192E09F938F93A7
:1011E0000E94CF0ADF93CF930E94CF0AF801858136
:1011F0008F9384818F9380E292E09F938F930E94DC
:10120000CF0ADF93CF930E94CF0AF80187818F9393
:1012100086818F938BE192E09F938F930E94CF0AF8
:10122000DF93CF930E94CF0AF80182851F928F939C
:101230008AE292E09F938F930E94CF0A87E191E028
:101240009F938F930E94CF0A8DB79EB74E960FB68D
:10125000F8949EBF0FBE8DBFDF91CF911F910F916C
:1012600008950E94520999230CF4939508955D9B6B
:10127000FECF8CB9089590BD89B988E18AB98EE80E
:1012800080BD60E070E087E399E00E94840A0895E1
:101290005F9BFECF8CB108958D9A80E48FBD89E06D
:1012A0008EBD0895E0910001F091010180838AE0F4
:1012B0008A95F1F7E0910001F09101018081082EFB
:1012C000000C990B08950F931F93CF93DF938230F7
:1012D000910510F482E090E0E0913C02F0913D0233
:1012E00020E030E0A0E0B0E0309719F1408151817A
:1012F0000281138148175907C8F08417950769F4CC
:10130000109731F012960C93129713961C9327C0E6
:1013100000933C0210933D0222C02115310519F0C3
:101320004217530718F49A01BD01EF01DF01F801DC
:10133000DBCF21153105F9F0281B390B243031059D
:1013400080F48A819B816115710521F0FB019383F3
:10135000828304C090933D0280933C02FE0132964A
:1013600044C0FE01E20FF31F819391932250310993
:10137000398328833AC020913A0230913B02232BD3
:1013800041F4209104013091050130933B022093F8
:101390003A0220910201309103012115310541F4F7
:1013A0002DB73EB74091060150910701241B350B24
:1013B000E0913A02F0913B02E217F307A0F42E1BF2
:1013C0003F0B2817390778F0AC014E5F5F4F2417A9
:1013D000350748F04E0F5F1F50933B0240933A028F
:1013E0008193919302C0E0E0F0E0CF01DF91CF91D3
:1013F0001F910F910895CF93DF93009709F481C057
:10140000FC01329713821282A0913C02B0913D02FE
:10141000109781F420813181820F931F20913A022D
:1014200030913B022817390751F5F0933B02E093C6
:101430003A0267C0ED0120E030E0CE17DF0740F44C
:101440004A815B819E0141155105F1F0EA01F5CF1A
:10145000D383C28340815181840F951FC817D90758
:1014600059F488819981840F951F02969183808316
:101470008A819B81938382832115310529F4F0931E
:101480003D02E0933C023DC0E901FB83EA834991C0
:101490005991C40FD51FEC17FD0761F4808191812C
:1014A000840F951F0296E901998388838281938135
:1014B0009B838A83E0E0F0E012968D919C911397D4
:1014C000009719F0FD01DC01F7CF8D919C911197E8
:1014D0009D012E5F3F4F820F931F20913A02309162
:1014E0003B022817390769F4309729F410923D021E
:1014F00010923C0202C013821282B0933B02A0936E
:101500003A02DF91CF9108950F931F93CF93DF930A
:10151000009731F46115710519F480E090E03AC04C
:101520008B01EC016EE070E081E090E00E94C60C5F
:10153000FC01892B91F380E883830115110571F07B
:101540001387028781E8838380913E0290913F0256
:10155000892B21F4F0933F02E0933E022097C9F0DB
:10156000D187C0878381826083838091400290917C
:101570004102892B71F4F0934102E0934002809183
:10158000420290914302892B21F4F0934302E093AD
:101590004202CF01DF91CF911F910F910895A0E0FA
:1015A000B0E0E5EDFAE00C94A90DAE014B5F5F4FA2
:1015B000FA0161917191AF018091400290914102D5
:1015C0000E94E50AE2E00C94C50DABE0B0E0EBEE62
:1015D000FAE00C94990D6C017B018A01FC011782E1
:1015E0001682838181FFCCC1CE0101963C01F601B8
:1015F0009381F70193FD859193FF81917F0188236A
:1016000009F4BAC1853239F493FD859193FF819134
:101610007F01853229F4B60190E00E94FF0CE7CFEC
:10162000912C212C312CFFE1F315D8F08B3279F07D
:1016300038F4803279F08332A1F4232D20611DC06B
:101640008D3261F0803369F4232D216016C0832D23
:101650008260382EE32DE4603E2E2AC0F32DF86020
:101660001DC037FC2DC020ED280F2A3040F08E32EF
:10167000B9F436FC81C1232D2064322E19C036FE08
:1016800006C08AE0989E200D1124922E11C0EAE037
:101690002E9E200D1124222EF32DF0623F2E08C025
:1016A0008C3621F4832D8068382E02C0883641F4B0
:1016B000F70193FD859193FF81917F018111B3CF54
:1016C000982F9F7D9554933028F40C5F1F4F9FE314
:1016D00099830DC0833631F0833771F0833509F07B
:1016E00059C021C0F801808189830E5F1F4F882473
:1016F0008394912C530113C02801F2E04F0E511C2A
:10170000F801A080B18036FE03C0692D70E002C0F0
:101710006FEF7FEFC5010E94F40C4C018201F32DA5
:10172000FF773F2E16C0280122E0420E511CF8011F
:10173000A080B18036FE03C0692D70E002C06FEF5B
:101740007FEFC5010E94E20C4C01F32DF0683F2EA3
:10175000820133FC1BC0822D90E088169906B0F4FC
:10176000B60180E290E00E94FF0C2A94F4CFF501CC
:1017700037FC859137FE81915F01B60190E00E94B0
:10178000FF0C21102A9421E0821A910881149104FF
:1017900071F7E8C0843611F0893641F5F80137FE5B
:1017A00007C060817181828193810C5F1F4F08C0E7
:1017B00060817181072E000C880B990B0E5F1F4F03
:1017C000F32DFF763F2E97FF09C090958095709579
:1017D00061957F4F8F4F9F4FF0683F2E2AE030E09A
:1017E000A3010E943B0D882E861845C0853731F431
:1017F000232D2F7EB22E2AE030E025C0932D997F35
:10180000B92E8F36C1F018F4883579F0B5C080371D
:1018100019F0883721F0B0C0E92FE061BE2EB4FE88
:101820000DC0FB2DF460BF2E09C034FE0AC0292F65
:101830002660B22E06C028E030E005C020E130E08E
:1018400002C020E132E0F801B7FE07C0608171817B
:10185000828193810C5F1F4F06C06081718180E09F
:1018600090E00E5F1F4FA3010E943B0D882E86184B
:10187000FB2DFF773F2E36FE0DC0232D2E7FA22E8F
:10188000891458F434FE0BC032FC09C0832D8E7EBF
:10189000A82E05C0B82CA32C03C0B82C01C0B92CAD
:1018A000A4FE0FC0FE01E80DF11D8081803321F4FC
:1018B0009A2D997EA92E09C0A2FE06C0B394B394B6
:1018C00004C08A2D867809F0B394A3FC11C0A0FE51
:1018D00006C0B21488F4280C922C9B180EC0B214C7
:1018E00060F4B60180E290E00E94FF0CB394F7CF61
:1018F000B21418F42B1802C0982C212CA4FE10C08E
:10190000B60180E390E00E94FF0CA2FE17C0A1FC8C
:1019100003C088E790E002C088E590E0B6010CC003
:101920008A2D867859F0A1FE02C08BE201C080E2C8
:10193000A7FC8DE2B60190E00E94FF0C891438F4F8
:10194000B60180E390E00E94FF0C9A94F7CF8A944E
:10195000F301E80DF11D8081B60190E00E94FF0CBB
:101960008110F5CF222009F442CEB60180E290E04A
:101970000E94FF0C2A94F6CFF6018681978102C05F
:101980008FEF9FEF2B96E2E10C94B50D0F931F9311
:10199000CF93DF93869F8001879F100D969F100D38
:1019A0001124C8010E946309EC01009729F0A801E5
:1019B00060E070E00E94ED0CCE01DF91CF911F91AD
:1019C0000F910895FC010590615070400110D8F707
:1019D000809590958E0F9F1F0895DC0101C06D9337
:1019E00041505040E0F70895FC0161507040019073
:1019F0000110D8F7809590958E0F9F1F08950F9333
:101A00001F93CF93DF93FB01238121FD03C08FEF51
:101A10009FEF2CC022FF16C046815781248135815B
:101A20004217530744F4A081B1819D012F5F3F4FBE
:101A3000318320838C93268137812F5F3F4F3783FB
:101A4000268314C08B01EC01FB010084F185E02D9D
:101A50000995892BE1F6D80116968D919C911797DF
:101A6000019617969C938E931697CE01DF91CF9196
:101A70001F910F910895FA01AA27283051F12031C2
:101A800081F1E8946F936E7F6E5F7F4F8F4F9F4F12
:101A9000AF4FB1E03ED0B4E03CD0670F781F891F54
:101AA0009A1FA11D680F791F8A1F911DA11D6A0F22
:101AB000711D811D911DA11D20D009F468943F91D5
:101AC0002AE0269F11243019305D3193DEF6CF01D4
:101AD0000895462F4770405D4193B3E00FD0C9F79A
:101AE000F6CF462F4F70405D4A3318F0495D31FD07
:101AF0004052419302D0A9F7EACFB4E0A69597955A
:101B0000879577956795BA95C9F70097610571052F
:101B100008959B01AC010A2E069457954795379579
:101B20002795BA95C9F7620F731F841F951FA01DD3
:101B300008952F923F924F925F926F927F928F9271
:101B40009F92AF92BF92CF92DF92EF92FF920F934C
:101B50001F93CF93DF93CDB7DEB7CA1BDB0B0FB656
:101B6000F894DEBF0FBECDBF09942A883988488813
:101B70005F846E847D848C849B84AA84B984C884A9
:101B8000DF80EE80FD800C811B81AA81B981CE0FA0
:101B9000D11D0FB6F894DEBF0FBECDBFED01089585
:041BA000F894FFCFE7
:101BA400001400004402200048656C6C6F206672CB
:101BB4006F6D20495352200A0D002578200A0D002C
:101BC4004275666665722070656E64696E670A0D9B
:101BD4000042757373204572726F720A0D004D6571
:101BE4007373616765206C6F7374206172626974CA
:101BF400726174696F6E0A0D004D65737361676578
:101C04002061626F727465640A0D004D65737361BF
:101C1400676520737563636573730A0D00506C61A7
:101C240079696E672067616D65210A0D004D6169F0
:101C34006E204D656E750053746172742067616D1A
:101C4400650053657474696E6773005365747469D1
:101C54006E6720310053657474696E6720320053D7
:101C6400657474696E6720330053746172740A0D6D
:101C740000204D435032353135206973204E4F5486
:101C840020696E20636F6E66696775726174696F2F
:101C94006E206D6F64652061667465722072657371
:101CA400657420210A0D2000583A20252D35640042
:101CB400202000593A20252D356400507265765F46
:101CC4004469723A20252D356400427574746F6E30
:081CD4003A20252D35640000C3
:00000001FF
