:100000000C9460030C947D030C947D030C947D038D
:100010000C947D030C947D030C947D030C947D0360
:100020000C947D030C947D030C947D030C947D0350
:100030000C947D030C947D030C947D030C947D0340
:100040000C947D030C947D030C947D030C947D0330
:100050000C947D030C947D030C947D030C947D0320
:100060000C947D030C947D030C947D030C947D0310
:1000700000000000005C00000C000C007C287C28C4
:1000800058DC68002410480028542840000C000068
:10009000007884008478000054385400107C1000EC
:1000A00080400000101010000040000060100C00A4
:1000B00038543800487C40004864580044542C00B0
:1000C0001C107C005C5424003854240064140C0080
:1000D00068542C0048543800004800008048000054
:1000E0001028440028282800442810000454080040
:1000F00038445C00781478007C5428003844280088
:100100007C4438007C5444007C140400384474005F
:100110007C107C00447C440020403C007C106C003F
:100120007C4040007C187C0078103C00384438004B
:100130007C1408003844B8007C146800485424003B
:10014000047C04007C407C003C603C007C307C00F3
:100150006C106C000C700C0064544C00007C44006B
:100160000C106000447C00000804080080808000BF
:1001700000040800304878007C48300030484800CF
:1001800030487C00306850001078140090A8780047
:100190007C08700050744000808074007C106800FF
:1001A000447C4000781078007808700030483000B7
:1001B000F82810003048F80078100800505828003F
:1001C000083C4800384078003840380078207800F3
:1001D0004830480098A0780048685800107884009B
:1001E000007C00008478100008040804000000006F
:1001F0000000005F00000007000700147F147F1458
:10020000242A7F2A1223130864623649552250009B
:1002100005030000001C2241000041221C00082AA6
:100220001C2A0808083E080800503000000808088A
:100230000808006060000020100804023E51494593
:100240003E00427F400042615149462141454B31C9
:100250001814127F1027454545393C4A4949300159
:10026000710905033649494936064949291E0036B0
:100270003600000056360000000814224114141401
:10028000141441221408000201510906324979412F
:100290003E7E1111117E7F494949363E414141223E
:1002A0007F4141221C7F494949417F090901013EA3
:1002B000414151327F0808087F00417F41002040C2
:1002C000413F017F081422417F404040407F0204AB
:1002D000027F7F0408107F3E4141413E7F090909AA
:1002E000063E4151215E7F09192946464949493157
:1002F00001017F01013F4040403F1F2040201F7F00
:100300002018207F631408146303047804036151E8
:1003100049454300007F4141020408102041417FCC
:100320000000040201020440404040400001020479
:100330000020545454787F4844443838444444207E
:10034000384444487F3854545418087E0901020840
:100350001454543C7F0804047800447D400020403D
:10036000443D00007F10284400417F40007C041879
:1003700004787C0804047838444444387C14141409
:1003800008081414187C7C080404084854545420A9
:10039000043F4440203C4040207C1C2040201C3C2A
:1003A0004030403C44281028440C5050503C446499
:1003B000544C44000836410000007F0000004136E4
:1003C000080002010302010000000000000000001C
:1003D000065F5F0600000000070700070700001423
:1003E0007F7F147F7F1400242E6B6B3A120000462F
:1003F0006630180C666200307A4F5D377A48000428
:1004000007030000000000001C3E634100000000E4
:1004100041633E1C000000082A3E1C1C3E2A0808BE
:10042000083E3E0808000000A0E060000000000850
:100430000808080808000000006060000000006074
:1004400030180C060301003E7F594D7F3E000042EC
:10045000427F7F40400000627359496F660000226E
:100460006349497F360000181C16137F7F10002750
:100470006745457D3900003C7E4B497930000003DB
:100480006371190F070000367F49497F3600000667
:100490004F49693F1E000000006C6C000000000026
:1004A000A0EC6C00000000081C3663410000001442
:1004B00014141414140000004163361C08000002D8
:1004C0000351590F0600003E7F415D5D1F1E007CF9
:1004D0007E13137E7C0000417F7F49497F36001CDC
:1004E0003E634141632200417F7F41637F1C0041A5
:1004F0007F7F495D416300417F7F491D0103001CEF
:100500003E6341517372007F7F08087F7F000000C7
:10051000417F7F41000000307040417F3F0100413A
:100520007F7F081C776300417F7F41406070007FC0
:100530007F060C067F7F007F7F060C187F7F001CE4
:100540003E6341633E1C00417F7F49090F06001E48
:100550003F21717F5E0000417F7F19396F46002681
:10056000674D597B32000003417F7F410300007FCC
:100570007F40407F7F00001F3F60603F1F00007F83
:100580007F3018307F7F0063771C081C776300077B
:100590004F78784F0700006773594D47637100002B
:1005A0007F7F41410000000103060C18306000000D
:1005B00041417F7F000000080C0603060C08008004
:1005C000808080808080800000030704000000207D
:1005D0007454543C784000413F7F44447C38003898
:1005E0007C44446C280000307848493F7F40003804
:1005F0007C54545C180000487E7F49030200009838
:10060000BCA4A4F87C0400417F7F08047C7800002F
:10061000447D7D4000000040C484FD7D0000004119
:100620007F7F10386C440000417F7F400000007CD9
:100630007C0C180C7C78007C7C04047C78000038EE
:100640007C44447C38000084FCF8A4243C18001846
:100650003C24A4F8FC8400447C78441C1800004826
:100660005C54547424000000043E7F442400003C89
:100670007C40403C7C40001C3C60603C1C00003CDA
:100680007C6030607C3C00446C3810386C44009CCA
:10069000BCA0A0FC7C00004C64745C4C64000008AE
:1006A000083E7741410000000000777700000041DC
:1006B00041773E0808000002030103020301000025
:1006C00011241FBECFEFD4E0DEBFCDBF11E0A0E00C
:1006D000B1E0E4EEF7E102C005900D92AC37B1074E
:1006E000D9F721E0ACE7B1E001C01D92A638B2070E
:1006F000E1F70E94B0040C94F00B0C94000080E829
:1007000085BF80E280BF0895CF92DF92EF92FF9283
:100710000F931F93CF93DF936C01E62EF72E8A0180
:10072000E90184E190E00E948307FC01C192D1922B
:10073000AE2DBF2DAC01405F5F4F2D913D912193B8
:100740003193E417F507C9F7FC01118B008BD38BAC
:10075000C28BDF91CF911F910F91FF90EF90DF90AF
:10076000CF9008954F925F926F927F928F929F9257
:10077000AF92BF92CF92DF92EF92FF920F931F93AF
:10078000CF93DF93CDB7DEB72E970FB6F894DEBFC9
:100790000FBECDBF8E010F5F1F4F8EE0F80111928B
:1007A0008A95E9F720E030E048E051E0B80180E0C8
:1007B00090E00E9484037C0120E030E04DE051E0B5
:1007C000B8010E9484034C0120E030E048E151E090
:1007D000B801C7010E9484036C0120E030E041E2CF
:1007E00051E0B801C7010E9484035C0120E030E0C1
:1007F0004CE251E0B801C6010E9484033C0120E0B4
:1008000030E046E351E0B801C6010E9484032C01A8
:1008100020E030E040E451E0B801C6010E948403CA
:10082000F70193828282D582C482B782A682F601C2
:10083000738262825582448297838683C7012E9693
:100840000FB6F894DEBF0FBECDBFDF91CF911F91E1
:100850000F91FF90EF90DF90CF90BF90AF909F905F
:100860008F907F906F905F904F9008950F931F939C
:10087000CF93DF93D82FC92F0E9425050D2F1C2F52
:10088000C0E060E08C2F0E946405D801ED91FD91DD
:100890008D01309721F0808991890E949305CF5F67
:1008A000C83079F7DF91CF911F910F9108950F9381
:1008B0001F93CF93DF93EB018A0128813981232B8A
:1008C00059F0FB01329620E030E02F5F3F4F41911D
:1008D0005191452BD1F702C020E030E0FC0144816A
:1008E000558143305105D1F401151105A1F18681DF
:1008F0009781892B81F5CE010E943604025011099F
:10090000802F0E947005000F111FC00FD11FE881BA
:10091000F981808991890E94B5051DC04430510537
:10092000D1F402171307B9F0FC0186819781892B56
:1009300091F4CE010E9436040E5F1F4F802F0E945B
:100940007005000F111FC00FD11FE881F981808948
:1009500091890E94B505DF91CF911F910F91089564
:100960000F931F93CF93DF93CDB7DEB72B970FB6BF
:10097000F894DEBF0FBECDBF0E947F030E946C07BC
:100980000E94EF058FE190E00E945B07CE01019687
:100990002BE0FC0111922A95E9F70E94DF060E94E4
:1009A000F7040E9425050E94B2038C010E943604C0
:1009B000FFEF2FEF8DE1F15020408040E1F700C0C4
:1009C0000000F801848195810E9436042B960FB6B1
:1009D000F894DEBF0FBECDBFDF91CF911F910F9175
:1009E0000895809300100895809300120895E0E028
:1009F000F0E181EA80838EEA80838AED808382E160
:100A0000808388EC808388EA80838FE3808385ED10
:100A1000808380E8808381E8808380E5808389ED1E
:100A2000808381E2808380E2808382E080838BED1B
:100A3000808380E380838DEA8083108284EA8083D0
:100A400086EA80838FEA80830895E0E0F0E180E227
:100A50008083108281E2808310828FE7808380E030
:100A600094E0E0E0F2E110820197E9F7E0E0F0E1E4
:100A700080E2808382E080830895E0E0F0E180E21C
:100A80008083108281E2808310828FE7808380E000
:100A900094E0E0E0F2E12FEF20830197E9F7E0E056
:100AA000F0E180E2808382E080830895982F9F7038
:100AB000E0E0F0E1908382958F70805F80830895FD
:100AC00080558093001008958055E0E0F0E1808328
:100AD000862F8F70808362956F70605F608308954A
:100AE00080558093001080E890E0E0E0F2E1108211
:100AF0000197E9F70895082E000C990B8097880F4D
:100B0000991F880F991F880F991FFC01E953FC4F0B
:100B100081539C4FA0E0B2E124912C933196E817C9
:100B2000F907D1F70895EF92FF920F931F93CF9398
:100B3000DF938C017C01C0E0D0E006C0F701819119
:100B40007F010E947B052196F80101900020E9F7C2
:100B50003197E01BF10BCE17DF0780F3DF91CF91C8
:100B60001F910F91FF90EF900895CF93DF9320E8AE
:100B700030E0E0E0F2E14FEF408321503109E1F74E
:100B8000DC0140E050E0C0E0D2E11CC020E030E0F9
:100B9000EC910E2E000CFF0BB097EE0FFF1FEE0F27
:100BA000FF1FEE0FFF1FE20FF31FE953FC4FE4910D
:100BB000E095E8832F5F3F4F2830310549F74F5FBD
:100BC0005F4F1196FC0101900020E9F73197E81B77
:100BD000F90B4E175F07D0F2DF91CF910895BA98C5
:100BE000B898B99808950F931F93CF93DF93EC01B2
:100BF00081E890E00E9472078058082F880F110B3F
:100C000080E890E00E9472078058082E000C990B33
:100C10002A81022E000C330BB801621B730B205883
:100C200031096217730744F09B012D5F3F4F273056
:100C3000310508F49CC09B014B81042E000C550B20
:100C4000841B950B405851098417950744F0AC015B
:100C50004D5F5F4F4730510508F497C0AC012883C2
:100C60004983C90187968F34910540F4CA0187965C
:100C70008F34910518F41986188661C0141615066C
:100C8000B4F4BA01552324F466277727641B750B47
:100C9000C901332324F488279927821B930B8617D5
:100CA0009707ECF483E090E09987888748C0552344
:100CB000B4F4BA01552324F466277727641B750B17
:100CC000C901332324F488279927821B930B8617A5
:100CD00097072CF484E090E09987888730C012163B
:100CE0001306B4F4B901332324F466277727621B73
:100CF000730BCA01992324F488279927841B950B29
:100D000086179707E4F481E090E09987888717C0F9
:100D10003323ACF4B901332324F466277727621B0D
:100D2000730BCA01992324F488279927841B950BF8
:100D30008617970724F482E090E099878887888552
:100D400099852C813D818217930721F03F832E8363
:100D50009D838C8396B381E0911101C080E08A87E6
:100D600029C018828983AC0120E030E07FCF2B813D
:100D7000022E000C330BAC01421B530BC9018058EF
:100D80009109481759076CF30EC028831982C901CD
:100D900087968F34910508F46ECF40E050E09FCFE6
:100DA0001882198268CFCA0103960797C8F320E01A
:100DB00030E055CFDF91CF911F910F910895CF93E0
:100DC000DF93EC010E94F30588818A8389818B83FC
:100DD000DF91CF9108950F931F93CF93DF938C01F1
:100DE000FC018081282F082E000C330B3F938F933A
:100DF0008AE491E09F938F930E94EF08C2E5D1E0CF
:100E0000DF93CF930E94EF08F8018181282F082EED
:100E1000000C330B3F938F9385E591E09F938F9365
:100E20000E94EF08DF93CF930E94EF08F8018581BD
:100E30008F9384818F9382E691E09F938F930E949A
:100E4000EF08DF93CF930E94EF08F80187818F931B
:100E500086818F938DE591E09F938F930E94EF0899
:100E6000DF93CF930E94EF08F80182851F928F9342
:100E70008CE691E09F938F930E94EF0889E791E0C1
:100E80009F938F930E94EF088DB79EB74E960FB633
:100E9000F8949EBF0FBE8DBFDF91CF911F910F9130
:100EA00008950E94720799230CF4939508955D9B11
:100EB000FECF8CB9089590BD89B988E18AB98EE8D2
:100EC00080BD60E070E087E597E00E94A408089587
:100ED0005F9BFECF8CB108958D9A80E48FBD89E031
:100EE0008EBD0895E0910001F091010180838AE0B8
:100EF0008A95F1F7E0910001F09101018081082EBF
:100F0000000C990B08950F931F93CF93DF938230BA
:100F1000910510F482E090E0E0917E01F0917F0174
:100F200020E030E0A0E0B0E0309719F1408151813D
:100F30000281138148175907C8F08417950769F48F
:100F4000109731F012960C93129713961C9327C0AA
:100F500000937E0110937F0122C02115310519F005
:100F60004217530718F49A01BD01EF01DF01F801A0
:100F7000DBCF21153105F9F0281B390B2430310561
:100F800080F48A819B816115710521F0FB019383B7
:100F9000828304C090937F0180937E01FE0132968C
:100FA00044C0FE01E20FF31F819391932250310957
:100FB000398328833AC020917C0130917D01232B15
:100FC00041F4209104013091050130937D0120937B
:100FD0007C0120910201309103012115310541F47A
:100FE0002DB73EB74091060150910701241B350BE8
:100FF000E0917C01F0917D01E217F307A0F42E1B34
:101000003F0B2817390778F0AC014E5F5F4F24176C
:10101000350748F04E0F5F1F50937D0140937C01D0
:101020008193919302C0E0E0F0E0CF01DF91CF9196
:101030001F910F910895CF93DF93009709F481C01A
:10104000FC01329713821282A0917E01B0917F0140
:10105000109781F420813181820F931F20917C01B0
:1010600030917D012817390751F5F0937D01E09308
:101070007C0167C0ED0120E030E0CE17DF0740F4CF
:101080004A815B819E0141155105F1F0EA01F5CFDE
:10109000D383C28340815181840F951FC817D9071C
:1010A00059F488819981840F951F029691838083DA
:1010B0008A819B81938382832115310529F4F093E2
:1010C0007F01E0937E013DC0E901FB83EA83499102
:1010D0005991C40FD51FEC17FD0761F480819181F0
:1010E000840F951F0296E9019983888382819381F9
:1010F0009B838A83E0E0F0E012968D919C91139798
:10110000009719F0FD01DC01F7CF8D919C911197AB
:101110009D012E5F3F4F820F931F20917C013091E4
:101120007D012817390769F4309729F410927F015F
:1011300010927E0102C013821282B0937D01A093AF
:101140007C01DF91CF9108950F931F93CF93DF938D
:10115000009731F46115710519F480E090E03AC010
:101160008B01EC016EE070E081E090E00E94E60A05
:10117000FC01892B91F380E883830115110571F03F
:101180001387028781E88383809180019091810198
:10119000892B21F4F0938101E09380012097C9F01D
:1011A000D187C087838182608383809182019091FF
:1011B0008301892B71F4F0938301E0938201809184
:1011C000840190918501892B21F4F0938501E093AE
:1011D0008401CF01DF91CF911F910F910895A0E07D
:1011E000B0E0E5EFF8E00C94C90BAE014B5F5F4F48
:1011F000FA0161917191AF01809182019091830117
:101200000E940509E2E00C94E50BABE0B0E0EBE0F6
:10121000F9E00C94B90B6C017B018A01FC01178287
:101220001682838181FFCCC1CE0101963C01F6017B
:101230009381F70193FD859193FF81917F0188232D
:1012400009F4BAC1853239F493FD859193FF8191F8
:101250007F01853229F4B60190E00E941F0BE7CF91
:10126000912C212C312CFFE1F315D8F08B3279F041
:1012700038F4803279F08332A1F4232D20611DC02F
:101280008D3261F0803369F4232D216016C0832DE7
:101290008260382EE32DE4603E2E2AC0F32DF860E4
:1012A0001DC037FC2DC020ED280F2A3040F08E32B3
:1012B000B9F436FC81C1232D2064322E19C036FECC
:1012C00006C08AE0989E200D1124922E11C0EAE0FB
:1012D0002E9E200D1124222EF32DF0623F2E08C0E9
:1012E0008C3621F4832D8068382E02C0883641F474
:1012F000F70193FD859193FF81917F018111B3CF18
:10130000982F9F7D9554933028F40C5F1F4F9FE3D7
:1013100099830DC0833631F0833771F0833509F03E
:1013200059C021C0F801808189830E5F1F4F882436
:101330008394912C530113C02801F2E04F0E511CED
:10134000F801A080B18036FE03C0692D70E002C0B4
:101350006FEF7FEFC5010E94140B4C018201F32D4A
:10136000FF773F2E16C0280122E0420E511CF801E3
:10137000A080B18036FE03C0692D70E002C06FEF1F
:101380007FEFC5010E94020B4C01F32DF0683F2E48
:10139000820133FC1BC0822D90E088169906B0F4C0
:1013A000B60180E290E00E941F0B2A94F4CFF50171
:1013B00037FC859137FE81915F01B60190E00E9474
:1013C0001F0B21102A9421E0821A910881149104A4
:1013D00071F7E8C0843611F0893641F5F80137FE1F
:1013E00007C060817181828193810C5F1F4F08C0AB
:1013F00060817181072E000C880B990B0E5F1F4FC7
:10140000F32DFF763F2E97FF09C09095809570953C
:1014100061957F4F8F4F9F4FF0683F2E2AE030E05D
:10142000A3010E945B0B882E861845C0853731F4D6
:10143000232D2F7EB22E2AE030E025C0932D997FF8
:10144000B92E8F36C1F018F4883579F0B5C08037E1
:1014500019F0883721F0B0C0E92FE061BE2EB4FE4C
:101460000DC0FB2DF460BF2E09C034FE0AC0292F29
:101470002660B22E06C028E030E005C020E130E052
:1014800002C020E132E0F801B7FE07C0608171813F
:10149000828193810C5F1F4F06C06081718180E063
:1014A00090E00E5F1F4FA3010E945B0B882E8618F1
:1014B000FB2DFF773F2E36FE0DC0232D2E7FA22E53
:1014C000891458F434FE0BC032FC09C0832D8E7E83
:1014D000A82E05C0B82CA32C03C0B82C01C0B92C71
:1014E000A4FE0FC0FE01E80DF11D8081803321F4C0
:1014F0009A2D997EA92E09C0A2FE06C0B394B3947A
:1015000004C08A2D867809F0B394A3FC11C0A0FE14
:1015100006C0B21488F4280C922C9B180EC0B2148A
:1015200060F4B60180E290E00E941F0BB394F7CF05
:10153000B21418F42B1802C0982C212CA4FE10C051
:10154000B60180E390E00E941F0BA2FE17C0A1FC31
:1015500003C088E790E002C088E590E0B6010CC0C7
:101560008A2D867859F0A1FE02C08BE201C080E28C
:10157000A7FC8DE2B60190E00E941F0B891438F49D
:10158000B60180E390E00E941F0B9A94F7CF8A94F3
:10159000F301E80DF11D8081B60190E00E941F0B60
:1015A0008110F5CF222009F442CEB60180E290E00E
:1015B0000E941F0B2A94F6CFF6018681978102C004
:1015C0008FEF9FEF2B96E2E10C94D50B0F931F93B7
:1015D000CF93DF93869F8001879F100D969F100DFC
:1015E0001124C8010E948307EC01009729F0A8018B
:1015F00060E070E00E940D0BCE01DF91CF911F9152
:101600000F910895FC010590615070400110D8F7CA
:10161000809590958E0F9F1F0895DC0101C06D93FA
:1016200041505040E0F70895FC0161507040019036
:101630000110D8F7809590958E0F9F1F08950F93F6
:101640001F93CF93DF93FB01238121FD03C08FEF15
:101650009FEF2CC022FF16C046815781248135811F
:101660004217530744F4A081B1819D012F5F3F4F82
:10167000318320838C93268137812F5F3F4F3783BF
:10168000268314C08B01EC01FB010084F185E02D61
:101690000995892BE1F6D80116968D919C911797A3
:1016A000019617969C938E931697CE01DF91CF915A
:1016B0001F910F910895FA01AA27283051F1203186
:1016C00081F1E8946F936E7F6E5F7F4F8F4F9F4FD6
:1016D000AF4FB1E03ED0B4E03CD0670F781F891F18
:1016E0009A1FA11D680F791F8A1F911DA11D6A0FE6
:1016F000711D811D911DA11D20D009F468943F9199
:101700002AE0269F11243019305D3193DEF6CF0197
:101710000895462F4770405D4193B3E00FD0C9F75D
:10172000F6CF462F4F70405D4A3318F0495D31FDCA
:101730004052419302D0A9F7EACFB4E0A69597951D
:10174000879577956795BA95C9F7009761057105F3
:1017500008959B01AC010A2E06945795479537953D
:101760002795BA95C9F7620F731F841F951FA01D97
:1017700008952F923F924F925F926F927F928F9235
:101780009F92AF92BF92CF92DF92EF92FF920F9310
:101790001F93CF93DF93CDB7DEB7CA1BDB0B0FB61A
:1017A000F894DEBF0FBECDBF09942A8839884888D7
:1017B0005F846E847D848C849B84AA84B984C8846D
:1017C000DF80EE80FD800C811B81AA81B981CE0F64
:1017D000D11D0FB6F894DEBF0FBECDBFED01089549
:0417E000F894FFCFAB
:1017E4000014000086012000526F6F74005374616E
:1017F40072742067616D650053657474696E6773F4
:101804000053636F7265626F617264005365747430
:10181400696E6720310053657474696E6720320005
:1018240053657474696E67203300583A20252D354A
:101834006400202000593A20252D3564005072653B
:10184400765F4469723A20252D35640042757474BC
:0C1854006F6E3A20252D3564000A0D004F
:00000001FF
